:020000041000EA
:1000000000B5324B212058609868022188439860DF
:10001000D860186158612E4B002199600221596106
:100020000121F02299502B49196001219960352056
:1000300000F044F80222904214D00621196600F024
:1000400034F8196E01211966002018661A6600F04E
:100050002CF8196E196E196E052000F02FF8012189
:100060000842F9D1002199601B49196000215960AB
:100070001A491B48016001219960EB211966A021F2
:10008000196600F012F800219960164914480160C1
:100090000121996001BC002800D000471248134993
:1000A000086003C880F30888084703B5996A0420EC
:1000B0000142FBD001200142F8D103BD02B5186610
:1000C0001866FFF7F2FF186E186E02BD00000240BE
:1000D000000000180000070000035F00212200005C
:1000E000F4000018222000A00001001008ED00E03C
:1000F00000000000000000000000000074B24E7A12
:1001000000200420F7010010C3010010C5010010F9
:10011000C1010010C1010010C1010010C101001097
:10012000C1010010C1010010C1010010C701001081
:10013000C1010010C1010010C9010010CB01001065
:10014000CD010010CD010010CD010010CD01001037
:10015000CD010010CD010010CD010010CD01001027
:10016000CD010010CD010010CD010010CD01001017
:10017000CD010010CD010010CD010010CD01001007
:10018000CD010010CD010010CD010010CD010010F7
:10019000CD010010CD010010CD010010CD010010E7
:1001A000CD010010CD010010CD010010CD010010D7
:1001B000CD010010CD010010CD010010CD010010C7
:1001C00000BE00BE00BE00BE00BE00BE00F04BF888
:1001D000103800BEF2EB88719C560010B856001023
:1001E0003402001090A31AE700202149086006C8D5
:1001F00081F3088810471F48006800282FD10DA4FC
:100200000ECC002902D000F012F8F9E71A491B4A77
:10021000002000E001C19142FCD1194988471949E9
:1002200088471949884700BEFDE701C901C29A42C3
:10023000FBD37047B8560010C00000209C0A002075
:10024000946000100000042000000420946000105E
:1002500000100420001004200000000070470B482C
:1002600002F01CFE0047EFF30580C0B270470000AB
:1002700008ED00E0000000D09C0A0020640D002082
:100280009914001001040010A11500105756000029
:1002900006005250ABB36053505600100600525047
:1002A000861C030260560010060052505422A29D84
:1002B0006856001005005250DE65F4689460001026
:1002C000F8B5C04610B5064C2378002B07D1054B76
:1002D000002B02D0044800E000BF0123237010BDB2
:1002E0009C0A00200000000098490010044B10B543
:1002F000002B03D00349044800E000BF10BDC046F6
:1003000000000000A00A00209849001070B5040009
:10031000081C144903F0A5FC134903F0A7FC03F0E3
:10032000ADFC80B2620807231A4001210D00254070
:1003300093009B189B000D4A9446634421420CD0C5
:1003400010229040002D0AD0094A196848401040F8
:10035000802252011343186070BD0022F1E7054A64
:10036000F3E7C04600409C46009618470C00054045
:100370000000FFFFFFFF0000F0B5CE46474680B506
:1003800087B080468946042100F054F84346580857
:10039000072108406B46002600965E609E60102292
:1003A0005A60144A9A6003AA1100B0CBB0C18023EE
:1003B000DB000493104B0593104F81000B189B003A
:1003C000DE510B189C00BC46230063449E60DE6037
:1003D000059E1E61049A5A600123039A1343E35158
:1003E00049464046FFF792FF07B0C0BCB946B04649
:1003F000F0BDC046FFFF00009698000000000540D9
:1004000010B50A490020FFF7B7FFFA24A400200026
:1004100000F0B0FC06490020FFF778FF200000F054
:10042000A9FC02490020FFF771FFEEE70000C84376
:100430000000164510B58300084A944663441C68C2
:1004400040226240C02414408022520113431C60A9
:10045000C000034B9C466044416010BD04C0014095
:1004600000400140EFF3108072B6034B1B68002B75
:10047000FBD0BFF35F8F70472C0100D0BFF35F8FBD
:10048000024B00221A6080F3108870472C0100D0C4
:10049000F8B505000C001600FFF7E4FFE308EF18BD
:1004A000EA5C072323401100D940C90706D4012183
:1004B00099400A433A70FFF7E1FFF8BD2100300090
:1004C00001F090F8002307E0054A9A189200BFF364
:1004D0005F8F0021116001331F2BF5D97047C04693
:1004E00040000034054A1078431CDBB21370172B10
:1004F00002D9130010221A707047C046C8010020AC
:10050000034B1B6802201840431E9841C0B270473D
:1005100000C0064040BF00200021704710B50029F0
:1005200022D003681B7B99421ED8174B9C4661441E
:10053000090183689C4661440C684968002A19D007
:1005400003681B7B9A4215D883680F48844662442F
:1005500012019A1810685368020001208B4201D8DA
:100560000ED00020C0B210BD084B094A3B210948FB
:1005700001F01AF8054B064A3B21064801F014F831
:10058000A242EFD8EDE7C046FFFFFF0F98490010E9
:10059000F04B0010BC49001010B500291ED0037BA1
:1005A00099421BD84B005B18033B0468A446634484
:1005B000002919D0002A1DD0914221D0002A25D02F
:1005C000047BA24222D80468500080180338201807
:1005D0008170197800291FD11A7010BD104B114A73
:1005E0004D21114800F0E0FF104B114A53310E48E5
:1005F00000F0DAFF0F4B0E4A54210B4800F0D4FFF5
:100600000D4B0B4A5521084800F0CEFF044B054A1C
:100610004D21054800F0C8FF41701A70DDE7C04663
:10062000044A0010B04B0010204A0010644A001029
:10063000904B0010704A00107C4A001070B5060004
:100640000D001400002914D0002A14D080687368AB
:100650009847002806D0220029003000FFF79CFFB1
:10066000280007E02A0021003000FFF795FF200056
:1006700000E0100070BD0800FCE70000F0B5CE46B9
:1006800000B582B00500009201930A9C0BAB1B7869
:100690009946002C29D00268E3B2517B8B4209D1E4
:1006A0000123002B1BD1002C39D1200002B080BCCB
:1006B000B946F0BD002B0CD0117B8B4209D81168D4
:1006C0005A00D318033BCB189B78002BE9D00123A9
:1006D000E7E73D4B3D4A4D213D4800F065FF3D4B6E
:1006E0003D4A51213D4800F05FFF03689C7B002C90
:1006F000D9D00ED01A7B94420BD862001219033A5B
:1007000019688C46624452789A73002ACBD1DA7306
:10071000C9E72D4B2D4A4D212D4800F045FFE7B28A
:10072000002F3AD02B681B7B9F4236D82C4BFB18EE
:100730001B01AA6894466344009A1A60019A5A60A1
:10074000089A9A60099ADA602E68002F2BD030D070
:10075000337B9F422DD87B00DB19033B32689446E4
:10076000634400229A705A701A70717B3A0030000C
:10077000FFF764FF7073A04297D1287D009A019B18
:1007800000F0BCFB061E02D04B46002B17D00C9B82
:10079000002B00D189E71E7087E7124B124A3B21DC
:1007A0000E4800F001FF114B114A7721084800F074
:1007B000FBFE054B054A4D21054800F0F5FE286873
:1007C000390000F0EDFDE2E7044A0010B04B0010E4
:1007D000204A0010944A0010BC4B0010BC49001085
:1007E000FFFFFF0F98490010F04B0010B84A0010AF
:1007F000A44B0010F0B5DE4657464E464546E0B5E0
:100800008BB00990002308938200A44BD658370080
:100810004CE0A34BA34A3B21A34800F0C5FE0029AE
:1008200001D1002868D10121404600F0AFFDA0426F
:1008300019D12A686B6806920793AB689846EB68F3
:100840009A464346002B14D0002C18D03B681B7BE3
:100850009C4214D8631EFA68D35C08931B021843A9
:100860003861002015E0914B914A78218E4800F0C4
:100870009BFE904B8E4A7C218B4800F095FE884B66
:100880008D4A4021884800F08FFE00239A46984602
:1008900000207B68BFF35F8F00221A6086F3108808
:1008A0004346002B31D1002800D1EFE000F0BEFA22
:1008B00002000B0000200021069007917868EFF3FA
:1008C000108672B601680029FCD0BFF35F8F3968CB
:1008D00088464C7B002CD8D09BD0097B8C4298D882
:1008E000764965182D01B9688C46654428686968A1
:1008F000801A9941002992DD2A686B68099800F0F6
:10090000FDFA00239A469846C3E7089B1B0223433F
:10091000994651461800C04705000E007A68EFF36B
:10092000108B72B6136859424B41D9B2002BF9D1E2
:10093000BFF35F8F002E23DB002E47DD3B69002BCA
:1009400048D04B4567D100F071FA02000B0001005E
:10095000180052197341984202D804D1914202D929
:1009600001225242D31700210491013103910294D4
:1009700051460191414600913800FFF77FFE41E06A
:100980003B69002BD8D04B451AD1069A079B100023
:100990001900521BB341994202D804D1904202D9A6
:1009A00001225242D3170021049101310391029494
:1009B00051460191414600913800FFF75FFE21E06A
:1009C0003F4B3B4A8B21384800F0EEFD002E01D111
:1009D000002DB3D13A68002C39D0537B9C4220D1F2
:1009E0000121002933D1D37B002B36D1D473002CC5
:1009F00046D03B681B7B9C4242D8FA68013C135DA1
:100A00000133135500233B617A68BFF35F8F136096
:100A10008BF310884AE72A4B254A8E21224800F0A2
:100A2000C3FD002C0DD0137B9C420AD863001B1918
:100A3000033B1068844663449B78002BD1D001218E
:100A4000CFE7204B204A4D21204800F0ADFD204B40
:100A5000204A8F211D4800F0A7FD002B0AD0117BF2
:100A60008B4207D85900CB18033B11688C4663446E
:100A70005C70BBE7134B144A4D21144800F094FD01
:100A8000074B0D4A4021084800F08EFD0BB0F0BC2A
:100A9000BB46B246A946A046F0BDC0463C0B00206E
:100AA00098490010F04B0010BC490010BC4A0010DF
:100AB000D44B0010D44A0010684B0010FFFFFF0F0A
:100AC000E04A0010044A0010B04B0010204A001009
:100AD0001C4B00107C4B001010B5054B186800280B
:100AE00000D010BD034B044A3521044800F05CFDE2
:100AF000280B00203C4B0010504B0010BC4900104C
:100B000070B505000E0000F085F9280000F05EFACF
:100B10001249280000F0AAF9182003F04FF9040048
:100B2000FFF7E0FC0E4B9C466044800060602200B2
:100B30000C49300000F03CFB20601021300003F035
:100B400041F9A0600121300003F03CF9E060257517
:100B5000AD00054BEC50200070BDC046F5070010FD
:100B6000400000341D0500103C0B002010B5064B62
:100B70001B68002B00D010BD10210320FFF7C0FF21
:100B8000014B1860F7E7C046280B0020F0B5DE46A1
:100B900057464E464546E0B589B0804616001F00D0
:100BA000129B9A46139B994614AB1B789B461F23B6
:100BB0006B4400221A702CE0002B09D042461268C8
:100BC000127B934204D85A1E4146C968895C3DE0B5
:100BD000354B364A4021364800F0E6FC0020002A1A
:100BE0005BD05B46002B58D04946D04704000D002F
:100BF00003000B434DD000293CDA32003B00361B8A
:100C0000AF41BB4202D804D1B24202D9012676429A
:100C1000F71743465A68EFF3108472B61368002B37
:100C2000FCD0BFF35F8F1F236B4404930023039317
:100C300002934B4601935346009332003B004046DB
:100C4000FFF71CFDC3B2002BB6D119004246526813
:100C5000BFF35F8F0025156084F31088002B1AD036
:100C60001F236B441A78002AB8D10902FF231840C9
:100C70000843B4E700F0DAF806000F0036196F41B8
:100C8000B94202D8C5D1B042C3D901267642F7177E
:100C9000BFE7002001E00120404209B0F0BCBB46A4
:100CA000B246A946A046F0BD98490010684B001016
:100CB000BC490010F0B587B006000F00062464425E
:100CC000E517A4197D418D4202D803D1844201D990
:100CD000002400250494059500F0A8F8241A8D41FD
:100CE000002D08DC05D03000390000F0ABF807B06B
:100CF000F0BD002CF7D0FFF7EFFE00230293019325
:100D00000F4B0093049A059BFFF740FF002806DA7B
:100D1000E9E7002300E00023002BE4D120BF049981
:100D2000059A084B5B6A9A42F5D80648806A884261
:100D300003D29A42EDD00123EEE70123ECE7C0464F
:100D40001505001000400540F8B504000D0000F046
:100D50006DF802000B0020002900801859418B42D9
:100D600002D804D1824202D901204042C117FFF7C4
:100D7000A1FFF8BD10B5FA2292000023002102F075
:100D800049FFFFF7E1FF10BD70B5EFF305833F208A
:100D900018401038EFF3108C72B6194B1B68002BFB
:100DA000FBD0BFF35F8F012319008140154A5163C7
:100DB000154A12781400C440234214D0114B5C6AC7
:100DC0008300124D5B599C4206D38300104C1B5983
:100DD0008A430D490A7007E00A4A031D9B0099588F
:100DE0009950002300E00023BFF35F8F044A0021E5
:100DF00011608CF31088002B00D0984770BDC0465E
:100E0000280100D000400540620D0020500D002058
:100E1000F00A002010B50100024A0348FFF738FB32
:100E200010BDC046FC4B0010600D0020044B5B6AF7
:100E3000034A906A1900536A9942F9D17047C04633
:100E400000400540084B5B6A01E0074B5B6A8B4240
:100E5000FBD301E0044B5B6A8B4203D1024B9B6ADC
:100E60008342F7D37047C0460040054070B5040088
:100E70000D00EFF3108672B61B4B1B68002BFBD0E6
:100E8000BFF35F8F002D1CD0200000F0C1FD174B79
:100E900083420BD01900200000F0C2FD0121200088
:100EA00000F0AEFD0123A340114A1360A400114BD2
:100EB000E550BFF35F8F0C4B00221A6086F3108859
:100EC00070BDA2000B4B0021D1500122A2400A4963
:100ED0000B7893430B700549200000F0CBFD0021F7
:100EE000200000F08DFDE4E7280100D0890D0010FE
:100EF00038600540F00A0020620D0020F0B5DE46A3
:100F000000B584B00400150001921E000293FFF7A3
:100F10008DFF03958E4202D844D1854242D9EFF32A
:100F2000108B72B6224B1B68002BFBD0BFF35F8F78
:100F30000125A5401F4B5D63EFB21F490A783A4374
:100F40000A70221D92000199D150A4001B4A0299F7
:100F5000A1501B6A2B4212D1164B1B6C2B4208D09E
:100F60000020BFF35F8F124B00221A608BF31088B2
:100F700019E0134B134AB221134800F015FBFFF799
:100F800055FF8E420CD802D1039B834208D8094BEF
:100F90001D625D63084A1378BB4313700120E0E7CC
:100FA0000020DEE7012004B080BCBB46F0BDC04697
:100FB000280100D000400540620D0020500D0020A7
:100FC000204C0010884C0010444C0010EFF3108CA3
:100FD00072B60B4B1B68002BFBD0BFF35F8F012356
:100FE0008340084A136208490A789A430A70BFF39B
:100FF0005F8F034B00221A608CF310887047C04645
:10100000280100D000400540620D002010B51F29C6
:1010100005D8064B9C4661448900016010BD044B15
:10102000044A0A21044800F0BFFAC04640000034D8
:10103000A44C00100C4D0010D04C001010B5040052
:10104000FFF750FA01002000FFF7E0FFFF232371B4
:10105000BFF35F8F10BD000010B500291ED0037BC9
:1010600099421BD84B005B18033B0468A4466344B9
:10107000002919D0002A1DD0914221D0002A25D064
:10108000047BA24222D8046850008018033820183C
:101090008170197800291FD11A7010BD104B114AA8
:1010A0004D21114800F080FA104B114A53310E487F
:1010B00000F07AFA0F4B0E4A54210B4800F074FAF4
:1010C0000D4B0B4A5521084800F06EFA044B054AB7
:1010D0004D21054800F068FA41701A70DDE7C046FE
:1010E000044A0010804E0010204A0010644A00108C
:1010F0006C4E0010704A00107C4A001070B506005B
:101100000D001400002914D0002A14D080687368E0
:101110009847002806D0220029003000FFF79CFFE6
:10112000280007E02A0021003000FFF795FF20008B
:1011300000E0100070BD0800FCE7000010B50023BF
:10114000437301338373037BC3730121037B8B429E
:1011500015D9CBB2002B0CD0027B934209D85A0090
:10116000D218033A0468A446624401335370013133
:10117000ECE70C4B0C4A4D210C4800F015FA002B03
:1011800009D09B4207D801685A00D318033BCB18FB
:1011900000225A7010BD034B034A4D21034800F052
:1011A00003FAC046044A0010804E0010204A001086
:1011B000F8B505000F0016001021012002F002FE14
:1011C0000400057347600321280002F0FBFD206046
:1011D000A6602000FFF7B2FF2000F8BD70B5040044
:1011E000081E00D170BD002934D0237B994231D82C
:1011F0004B005B18033B2268944663445A78002AEC
:10120000F0D02DD0237B9A422AD853009B18033B61
:1012100021688C4663445D7800215970002825D0F0
:10122000237B984222D843001B18033B21688C463D
:1012300063440021597001002000FFF75FFF0600A2
:1012400029002000FFF7CAFF020031002000FFF74D
:1012500055FFC7E7084B094A4D21094800F0A4F99A
:10126000054B064A4D21064800F09EF9024B034A01
:101270004D21034800F098F9044A0010804E0010F8
:10128000204A001070B505000C001600002928D077
:101290002DD0037B99422AD84B005B18033B026890
:1012A000944663445A78002A27D19A78002A2AD192
:1012B0001978FFF793FF0300002E03D1EA7B002A81
:1012C00027D1EC73002B37D1002C49D02B7B9C42CB
:1012D00046D82B6861000C19033C1C19002363706D
:1012E00070BD224B224A3321224800F05DF9224B87
:1012F000224A4D21224800F057F9224B1C4A352141
:101300001C4800F051F9204B194A3621194800F0C9
:101310004BF9002A0AD0297B8A4207D851008A1843
:10132000033A29688C4662445470CAE7124B134A48
:101330004D21134800F038F9002B0BD02A7B934243
:1013400008D843001B18033B2A68944663440022D4
:101350009A70B9E7084B094A4D21094800F024F971
:10136000054B064A4D21064800F01EF9984D001025
:10137000584E0010A04D0010044A0010804E00107E
:10138000204A0010D84D0010004E001070B5040027
:101390000A00457B2900FFF775FF6073280070BDC8
:1013A00070B50400002967D0437B8B420ED0002922
:1013B00011D0037B99420ED84B005B18033B0268A7
:1013C000D0188378002B0CD1002056E00021FFF7C5
:1013D000DDFF012051E0294B294A4D21294800F029
:1013E000E3F8002B20D0227B93421DD85A00D3185B
:1013F000033B2268D2182568EB5C8B421AD0002B85
:101400001BD0227B934218D85A00D318033B226882
:10141000D21853788B4216D0002BF0D11A4B1B4AAE
:1014200063211B4800F0C0F8144B154A4D211548A4
:1014300000F0BAF84378137007E0104B104A4D21C2
:10144000104800F0B1F84378537000238370437064
:1014500000222000FFF716FF0200617B814205D0C9
:101460002000FFF74BFE6073012006E0094B074A9E
:101470006921074800F098F8002070BD044A001068
:10148000804E0010204A0010244E00104C4E0010D8
:10149000A04D00102C4E001070B5234B234A1A604B
:1014A000234B244A1A60244B9A68224B9343FAD167
:1014B000224C01E008CC9847214B9C42FAD300F023
:1014C0001DF91B4B1F4A1A601B4B9B68DB43DB015A
:1014D000FAD11D4B40229A675A671A67DA661B4C8D
:1014E00003E02000FFF7AAFD0834194B9C42F8D313
:1014F000184CA168184DC022280002F075FCA560A8
:10150000EFF30383FF221A4200D000BEFEF7DAFF9A
:1015100000F01AFCFFF72AFB104C01E008CC9847BA
:101520000F4B9C42FAD370BD00E00040BFCDFFFFDF
:1015300000F00040FE7F3C0000C00040880A002010
:10154000980A0020FFFFFF0100F00140800A002000
:10155000880A002000ED00E000000020980A00202A
:101560009C0A002000BEFDE703000A4A1268002A18
:1015700008D0084A1068C318074A934206D2054AA1
:1015800013607047034A05491160F2E701204042A9
:10159000F7E7C046380B002000000420640D00204F
:1015A00010B5FFF7DFFF000010B582B00C00190086
:1015B000002A0CD0084B002A0BD001920093230084
:1015C0000200064802F028FD0120FFF7CBFF044B84
:1015D000F1E7034AF1E7C0468C4E00109C4E001024
:1015E000984E00100FB400B583B0084802F0E4FC38
:1015F000049B002B07D005A90191180002F0EAFC1A
:10160000034802F0D9FC0120FFF7ACFFCC4E0010DC
:10161000DC4E0010F8B5D646474680B506000D00F2
:101620001700089A934243D3190E1802089A002310
:1016300001F0D2FC80467400A419A4002A4B9C46F9
:1016400064446368834200D26060331FDBB29A4611
:10165000012B33D9C0239B012343802212011A603E
:10166000B300224A9958002905D0506901F06EFC58
:1016700001300138FDD17F0122685740E022174038
:1016800080235B0123431F605246012A21D9802316
:101690009B012343802212011A6043466360B60017
:1016A000124B089AF2500120C0BCBA46B046F8BDB1
:1016B0000F4B104A2E211048FFF776FF012DC9D19C
:1016C000C0239B01234303221A60A368DB07FCD5D8
:1016D000D1E72168694003220A401A60A268012309
:1016E000AB401342FAD0D2E700800040000B00204C
:1016F000E04E0010384F0010F44E001030B583B0AB
:101700000C2000F08DF8FEF7FBFE00280DD0002322
:1017100004E09900334A344888500133092BF8D942
:10172000304B324A5A6203B030BD314B00229A67C7
:1017300000F07EF82F4B01221A602D4B5B6C012BC1
:10174000FBD12D4B03221A60294B9B6B012BFBD144
:10175000C0239B01294A1360294A1360294B9A68C8
:10176000C0239B019343F9D1022400940633264AF7
:101770000121264800F070F800940523244A012135
:10178000244800F069F8244B009300220221042031
:10179000FFF740FF214D00952B000022012105207D
:1017A000FFF738FF104C009423000022002107208F
:1017B000FFF730FF00942300002200210820FFF7EC
:1017C00029FF0A4B00932300002200210920FFF784
:1017D00021FF00952B00002200210620FFF71AFFB1
:1017E000A1E7C046000B0020006CDC021BB7000024
:1017F000008000403CB0004030B0004000E00040BD
:1018000000F0004000C00040002F685900800240F6
:1018100000389C1C00C00240001BB70040597307F1
:1018200080239B000343014AD36270470080054038
:10183000064BAA2212011A602F22DA60044B054AD5
:101840001A60024B5B68002BFBDA704700400240D5
:101850000060024000B0FA00F8B5CE46474680B5B9
:101860000400894690461D0008AB1F7801235B42A7
:101870004360002383600C2001F068FB06004B46A8
:10188000236043011B1A9901C91AC900091889016B
:10189000404601F05BFB0200103A98235B009A423D
:1018A00020D86B1E062B23D87B1EDBB2062B1FD83D
:1018B000AF4223D843461A09B24225D3A060221D65
:1018C000C0239B01134321221A602268002AFCDAFC
:1018D0002D043F033D43E56008221A60C0BCB946B1
:1018E000B046F8BD0B4B0C4A1A210C48FFF75CFEC2
:1018F0000B4B094A1D210948FFF756FE094B064AC2
:1019000023210648FFF750FE074B034A27210348CF
:10191000FFF74AFE484F001024500010644F00109B
:10192000A44F0010F04F001008500010074B9B68A8
:10193000103080001950BFF35F8FBFF35F8F044BEF
:101940000021196082F310887047C04600ED00E066
:10195000240100D010B5091A04394808090B05D133
:101960004005400D044B184380B210BD034B044AA0
:101970008D210448FFF718FE00E0FFFF30500010F3
:101980003C5200104050001010B5091A04394C08A0
:10199000090B08D14905490D064A11430180064B40
:1019A0002343438010BD054B054A95210548FFF7A9
:1019B000FBFDC04600F0FFFF00F8FFFF30500010B5
:1019C000105200104050001001238340034A106859
:1019D0001840431E9841C0B27047C04600E100E085
:1019E000002904D0034B1860034B18607047034B69
:1019F0001860FBE780E200E000E100E080E100E049
:101A000010B5012383401800FFF7EAFF10BD000066
:101A1000024B9B6810308000C058704700ED00E01A
:101A200070B504000D00EFF3108672B60C4B1B6806
:101A3000002BFBD0BFF35F8F2000FFF7E9FF094BBE
:101A4000984201D0A84205D1320029002000FFF7BA
:101A50006DFF70BD044B054A71210548FFF7A4FDD9
:101A6000240100D0CD010010805000105852001009
:101A700040500010F0B5CE46474680B583B0060012
:101A80000D00EFF3108872B65A4B1B68002BFBD089
:101A9000BFF35F8F584B9A6834001034A300D758B7
:101AA000564B9F4207D0AF4200D1A0E00197544B64
:101AB000FB1A2F2B09D9424639003000FFF736FFB9
:101AC00003B0C0BCB946B046F0BD3000FFF77CFFA4
:101AD000814600213000FFF793FFBFF35F8FFEF7D1
:101AE000C2FB002801D084421ED10123019C9C43EB
:101AF0004349611A8A1093009B1819015B18190257
:101B00005B1819045918490089180022A368AB42D0
:101B100012D00622A256002A0DDB53009B189B0010
:101B20002200374CE418F1E78E21364B364A490043
:101B30003648FFF739FD2200AB4251D106256557E3
:101B4000002D39DB6B005B199A002D4B9B189A68AE
:101B5000A260DA79E27106229A56A2719B795BB291
:101B6000002B10DABD200002A0806B005B199B00E7
:101B7000234AD318264A11789971157049463000C6
:101B8000FFF73EFF97E7201D6B005B199B001C4A87
:101B90009B181A1D9B88D90A1C2907D15B055B1568
:101BA000023359005118FFF7D5FEDDE7194B1A4AE9
:101BB0009B211648FFF7F8FC00280CD1002A08D01A
:101BC000FF239371154B9380114B1A78A2711970F2
:101BD000D4E70A4FF8E7201D1149FFF7D5FECDE7FE
:101BE0005221104B084AFF310848FFF7DDFC034F34
:101BF00061E7C046240100D000ED00E0CD010010F7
:101C0000CC010020945100102852001040500010C8
:101C1000610D00207C5100104852001000BDFFFFF4
:101C200006020020B851001010B5032304009C43A5
:101C3000064A9446644422681840C000FC3383403E
:101C40009A43130081400B43236010BD00E400E081
:101C5000F8B5040001250543304BEB1A2F2B2DD886
:101C6000FEF701FB002830D0EFF3108172B62C4B49
:101C70001B68002BFBD0BFF35F8F284BE31A9E102D
:101C8000B20092191301D2181302D2181304D318F8
:101C90005B009B19234A926880001258AA421BD00D
:101CA0000020032832D84200121892001B4DAA18B7
:101CB000927952B29A421FD00130F2E7B7211A4B03
:101CC0001A4A49001A48FFF76FFC7221194B174A4C
:101CD000FF311748FFF768FC124A9268164D1550FD
:101CE000164A1078A0711370BFF35F8F0C4B00225F
:101CF0001A6081F31088F8BD2E0042001518AD005F
:101D00007519FF27AF710E48A880E9E7C1210D4B77
:101D1000064A49000648FFF747FCC046CC010020B0
:101D2000240100D000ED00E0C0510010F45100107B
:101D300040500010E8510010CD010010610D00204E
:101D400000BDFFFF244E001010B5002404E08021E8
:101D50002000FFF769FF01341F2CF8D910BD704730
:101D600010B5002802D00B684968984710BD0100E3
:101D7000002007E083001B185B00501C08601078EF
:101D8000C01830380A681378303BDBB2092BF1D920
:101D90007047F0B5DE4657464E464546E0B583B03F
:101DA00093461F000C9B9A460D9C0E9B99460F9BD9
:101DB0009B0703D0B8460F00060022E00192A3461D
:101DC00088464E46B9460700B44207D2551C4B46DA
:101DD00041462020B84701342A00F5E73D004F4630
:101DE0005C46019B9B46B1464646B84637002E00EE
:101DF00007E0013C551C5346185D43463900B04787
:101E00002A00002CF5D135003E0047460F9B9B076A
:101E100007D4100003B0F0BCBB46B246A946A046AA
:101E2000F0BDB0464E46B9462F005D46531BB34247
:101E3000EFD2541C4B4641462020B8472200F5E71C
:101E4000F0B5CE46474680B585B0944698460C9D81
:101E50000D9C0EAB1B789946109A119B129EB707EA
:101E60001CD4002B0CD0F7070AD54F46002F02D107
:101E70000C37374204D0013B02E030272F550134A4
:101E8000944201D21F2CF8D9F70707D59C4205D2FE
:101E90001F2C03D830272F550134F5E7F70615D549
:101EA000770505D4002C03D0944224D09C4222D044
:101EB0000F9A102A2BD00F9A102A30D00F9A022A8C
:101EC00035D01F2C02D830222A5501341F2C05D8BA
:101ED0004A46002A31D02D222A5501340396029316
:101EE0000194009543466246FFF753FF05B0C0BC1E
:101EF000B946B046F0BD621E012C06D00F9F102FD0
:101F000001D01400D4E7023CD2E71400D0E7B206B7
:101F1000D1D41F2CCFD878222A550134D1E7B2066C
:101F2000CCD51F2CCAD858222A550134C9E71F2CFA
:101F3000C7D860322A550134C3E7720703D52B2274
:101F40002A550134CAE73207C8D520222A55013460
:101F5000C4E7F0B5DE4657464E464546E0B593B079
:101F600081468A46089209931CAB10CB1B789B468E
:101F70001E9D219B9846002C03D1102342469A4374
:101F800090468023DB0046461E4042461A4212D04D
:101F9000002C22D000260EE03033D9B2771C0AABD9
:101FA00099552900200000F0D1FFAC4216D31F2F15
:101FB00014D83E0004002900200000F0C7FFCBB277
:101FC000092BE9D94246920605D54121C918C9B263
:101FD0000A39C9B2E2E76121F8E7270043460693D0
:101FE000209B05931F9B049303955B4602930197E7
:101FF0000AAB0093099B089A51464846FFF720FF19
:1020000013B0F0BCBB46B246A946A046F0BDF0B541
:10201000DE4657464E464546E0B595B008900991D4
:102020000A920B931E9E1F9C20AB1B789B46229B03
:102030009946239D269B9A463300234303D11033B0
:1020400052469A4392468023DB0057461F40524631
:102050001A4219D0330023432DD0002714E0303327
:10206000DAB27B1C98460CABDA554A462B0030009E
:10207000210000F0B1FFA5421FD819D043461F2B05
:102080001BD8474606000C004A462B0030002100B2
:1020900000F0A2FFD3B2092BE1D95246920605D532
:1020A0004122D218D2B20A3AD2B2DAE76122F8E774
:1020B000B145E3D901E00023984653460693259B9A
:1020C0000593249B04934B4603935B46029343463C
:1020D00001930CAB00930B9B0A9A09990898FFF7A0
:1020E000AFFE15B0F0BCBB46B246A946A046F0BD57
:1020F000F0B5DE4657464E464546E0B591B08246BD
:1021000089460E9298461A9C07941B9D08952200BA
:102110002B002000290001F0D6F9002800D06FE143
:1021200001225242D94B2000290001F0C7F90028B2
:1021300000D065E101225242D54B2000290001F078
:10214000A7F9002800D05BE100220023079C2000B3
:10215000089D290001F09CF9002800D067E1079A4A
:10216000089B099206938023DB001E9A1A400F9267
:102170001E9A1A4201D106231C93099B069A100D40
:102180004005400DC3498C4660441203120B1E00EB
:10219000C14B13431F0001F0A9F9C04AC04B01F025
:1021A00035F9C04AC04B01F01FF904000D000022B0
:1021B000BE4B3000390001F00EF9BD4ABD4B01F0B5
:1021C00025F902000B002000290001F00DF901F0B3
:1021D000A5F9834601F08AF904000D00B64AB74B11
:1021E00001F014F90022B64B01F0FEF801F096F967
:1021F0000600B44AB44B2000290001F007F904009E
:102200000D000A96300001F071F9B04AB04B01F0B0
:10221000FDF802000B002000290001F0DCF80400AA
:102220000D0002000B0001F0F1F806000F000A9902
:10223000A84B9C466144002200230A920B93090597
:102240000B9100210A9122002B002000290001F0AF
:10225000CBF80C900D9122002B0000208021C905A5
:1022600001F0B9F804000D0000229B4B300039004A
:1022700001F0C3F80022994B01F0B6F802000B0000
:102280003000390001F0B9F80022954B01F0ACF8AC
:1022900002000B003000390001F0AFF802000B0023
:1022A0002000290001F0A0F802000B000C980D9905
:1022B00001F0A3F80022784B01F096F80A9A0B9BE4
:1022C00001F0A4F804000D000A940B95099A069BEE
:1022D00001F0F4F800280BD001235B429C46E34454
:1022E00000227E4B2000290001F087F80A900B9114
:1022F0005B466333C62B00D9A0E004241E9B1B055C
:1023000023D5784A784B099E3000069D290001F0BC
:10231000CDF8002800D196E00022744B300029004F
:1023200001F0B6F8002800D18DE01C9B5B4500DC75
:1023300086E05A46981A431E1C938023DB001E9A9F
:102340001A431E92002400239B461D9B9C4200D3EF
:1023500085E01D1B02231E9E1E401E9A134202D0C2
:10236000002C00D000255B46002B07D00A9A0B9B5F
:102370000998069901F041F809900691002200237E
:102380000798089901F084F800286AD1584B1E9AE2
:102390001340049303951C9B0293099A069B009299
:1023A000019343460E9A4946504600F0A3F8002C8C
:1023B00036D01E9B9B065BD54527451C4346020035
:1023C00049463800D0475B46DA179B185340052230
:1023D0000592013C0494002203920A3202925A466A
:1023E000D00F0190009343462A0049465046FFF71C
:1023F000B0FD002E14D0020057460E9E1D9D3FE0FA
:102400001E9B04931D9B03931C9B0293079A089B9E
:102410000092019343460E9A4946504600F06AF8EE
:1024200011B0F0BCBB46B246A946A046F0BD099427
:1024300080231B069C466544069594E605245DE7CB
:1024400000231C9379E71C9B002B00D17DE70F9B99
:10245000002B00D179E71C9B013B1C9375E70025FD
:1024600078E70699802000068446614406918DE74E
:102470006527A2E7541C434649462020B84722005E
:10248000931BAB42F6D31000CAE7C046FFFFEF7FB5
:10249000FFFFEFFF01FCFFFF0000F03FFB799F50C3
:1024A0001344D33FB3C8608B288AC63F0000F83F6F
:1024B00061436F63A787D23F71A379094F930A40A5
:1024C0000000E03F1655B5BBB16B0240EF39FAFE94
:1024D000422EE63FFF03000000002C400000244095
:1024E000000018402D431CEBE2361A3F80842E4139
:1024F000FFF7FFFFF0B5DE4657464E464546E0B5CE
:1025000095B00690079193469946209F1E9A1F9B6F
:102510001000190000F0D7FF002831D101225242EB
:10252000BF4B1E981F9900F0B3FF002837D101223E
:102530005242BC4B1E981F9900F0C0FF00283DD1AD
:102540000022B94B1E981F9900F0B8FF002850D107
:102550000022B64B1E981F9900F09AFF002848D120
:10256000002200231E981F9900F092FF002850D1EE
:1025700000239846229B5B0500D4B6E0002458E077
:10258000229B0393219B029303230193A84B009367
:102590004B465A4607990698FFF7FBFB0EE1229B34
:1025A0000393219B029304230193A24B00934B4678
:1025B0005A4607990698FFF7ECFBFFE00423229A9E
:1025C0001A4022990B4210D09B4B002A0FD00422B4
:1025D0002299039121990291019200934B465A4608
:1025E00007990698FFF7D5FBE8E0944BEDE7032247
:1025F000EEE7229B0493219B039302971E9B1F9C53
:10260000009301944B465A4607990698FFF770FDD0
:10261000D4E01E9A1F9B0020002100F0DCFE1E90DB
:102620001F9101239846A5E70CAB30221A55013FB4
:1026300001341F2C01D8092FF6D81E981F9900F0DD
:102640006DFF050000F052FF02000B001E981F995D
:1026500000F0C1FEFA007A4B9B181A685B680A9278
:102660000B9300F0D3FE0890099100F07BFF060069
:1026700000F038FF02000B000898099900F0ABFE4B
:102680000890099100226F4B00F018FF00282ED00F
:102690000136300000F026FF02000B000A980B996B
:1026A00000F0FCFE002801D001350026002F2CD1BF
:1026B000280000F01BFF02000B001E981F9900F07D
:1026C0008AFE06000F0000225E4B00F0E1FE0028AB
:1026D00046D100225B4B3000390000F0EFFE0028AD
:1026E0003ED1EB073CD501353AE0062746E700220C
:1026F000544B0898099900F0CBFE0028D6D1002E43
:1027000001D0F307D2D50136D0E7AA461F2C11D845
:10271000013F0A21300000F019FC651C30310CAB80
:1027200019550A21300000F011FC092E0ED90600BF
:102730002C00EBE755461F2C0CD87B1E002F09D030
:102740000CAA302111551F000134F4E72B00554627
:102750001C00F0E71F2C03D80CAB2E221A550134B5
:102760001F2C10D80A21280000F0C4FB661C303151
:102770000CAB19550A21280000F0BCFB051E01D046
:102780003400EDE734000323229A1340012B1CD0C0
:102790001F2C06D84346002B32D00CAB2D221A55E5
:1027A0000134229B0393219B029301940CAB009371
:1027B0004B465A4607990698FFF7EBFA15B0F0BC5E
:1027C000BB46B246A946A046F0BD219B002B13D0C4
:1027D0004346002B02D10C3313420FD0219B013B07
:1027E0002193190003E00CAB30221A5501348C42BE
:1027F000CED21F2CF7D9CBE72199F8E72199F6E73C
:10280000229B5B0704D50CAB2B221A550134C8E779
:10281000229B1B07C5D50CAB20221A550134C0E7FB
:10282000FFFFEFFFFFFFEF7F65CDCD4165CDCDC150
:102830008052001084520010785200107452001020
:10284000705400100000E03FF0B5DE4657464E469B
:102850004546E0B593B082468B46904611930029D9
:1028600000D1EBE200275546119B1878002800D1D3
:10287000E7E2252809D07C1C43463A005946A84780
:10288000119B013311932700EEE7013311930024CC
:10289000119A11780B00203BD8B2102803D883007E
:1028A000D048C3589F460B00303BDBB2092B2CD9D4
:1028B0002A292FD000230A93119B1A782E2A39D067
:1028C00000239A46119A1378683BD9B2122976D818
:1028D0008B00C549CB589F4601231C4301321192FE
:1028E000D6E702231C4301321192D1E704231C4393
:1028F00001321192CCE708231C4301321192C7E741
:1029000010231C4301321192C2E711A8FFF72FFADE
:102910000A90D1E71C9B1A1D1C921868002804DB42
:102920000A90119B01331193C6E702231C434342D3
:102930000A93F6E78022D20014435A1C11925A7867
:102940001300303BDBB2092B04D92A2A07D000231D
:102950009A46B7E711A8FFF70AFA8246B2E71C9B2E
:102960001A1D1C921868002804DB8246119B013353
:102970001193A7E70020F8E780235B002343511C55
:10298000119152786C2A01D01C0018E0C0239B00E2
:102990001C430131119112E080232343511C1191FA
:1029A0005278682A01D01C0009E0C0231C43013181
:1029B000119104E080235B001C4301321192119BB2
:1029C00018780300253BDAB2532A00D92CE2930091
:1029D000864AD3589F4680239B001C4301321192A4
:1029E000EDE780235B001C4301321192E7E7782872
:1029F00009D0582838D06F2838D0622838D0102312
:102A00009C430A2600E01026582833D0692803D0BA
:102A1000642801D00C229443630501D5012294431C
:102A200069282AD0642828D0A30500D59FE0E305B3
:102A300000D5B8E0630600D4CAE01C9A111D1C91B1
:102A40001168FF220A4005940A9B0493534603939E
:102A5000029600230193009243463A00594628000B
:102A6000FFF777FA070027E01026CDE70826CBE727
:102A70000226C9E720221443C8E7A30520D4E305B2
:102A800050D4630666D51C9A111D1C911168FF2253
:102A90000A40D317D118594005940A9B0493534612
:102AA00003930296D20F0192009143463A00594691
:102AB0002800FFF74EFA0700119B01331193D3E66C
:102AC0001C9BDA1D07218A43110008311C911168F3
:102AD00053689C46DB170C930D930C9A0D9B1000CA
:102AE00048400E90624653400F930E980F990C9AEF
:102AF0000D9B801A99410E900F9108940A9B0793A1
:102B0000534606930496002305936346DA0F029218
:102B10000090019143463A0059462800FFF777FAA2
:102B20000700C9E71C9A111D1C911268D317D11810
:102B3000594005940A9B0493534603930296D20F7F
:102B40000192009143463A0059462800FFF701FAE6
:102B50000700B1E7230605D51C9A111D1C9100231F
:102B6000D25E96E71C9A111D1C91126891E71C9B7E
:102B7000DA1D07218A43110008311C9108940A9B31
:102B80000793534606930496002305930293136814
:102B900054680093019443463A0059462800FFF7D1
:102BA00036FA070088E71C9A111D1C9105940A9BB0
:102BB00004935346039302960023019313680093F2
:102BC00043463A0059462800FFF7C3F9070073E768
:102BD00023060DD51C9A111D1C9112681204120CAB
:102BE00031E7C0468C520010D05200101C53001028
:102BF0001C9A111D1C91126825E746281AD01C9BAF
:102C00000733072293431A0008321C9204940A9A4D
:102C10000392524602925C681B68009301944346FB
:102C20003A0059462800FFF765FC0700119B013365
:102C3000119319E620231C43E1E7672801D04728B8
:102C400002D180231B011C43452801D0472801D114
:102C500020231C431C9B0733072293431A0008328E
:102C60001C9204940A9A0392524602925C681B6872
:102C70000093019443463A0059462800FFF738FA7A
:102C80000700119B01331193EEE502231A00224045
:102C9000924623421FD001241C9B1A1D1C927A1CB1
:102CA0009146187843463A005946A8475346002BA8
:102CB00016D1119B013311934F46D5E5561C43465F
:102CC00059462020B847230032005C1C9D42F5D8AD
:102CD0003D001700E0E701233A002F000A9DF4E7CA
:102CE0004A46A9460A9D06E0571C434659462020FD
:102CF000C84734003A00661CA542F5D84D469146B7
:102D0000D7E71C9B1A1D1C921B6899465346002B43
:102D100000D1013B4E4601E0013613003278002A13
:102D200002D05A1E002BF7D14B46F21A1092802384
:102D3000DB0026001E401C4203D0524501D95346F9
:102D4000109302231A0022400B92234205D03A002E
:102D500037004C46A946554620E03A00109B5F4696
:102D6000B3462E0006E0551C434639002020B047EC
:102D700023002A005C1C0A999942F4D835005E466B
:102D8000BB46109437004C46A946554606E01D0048
:102D90000134561C43465946C84732002078002863
:102DA00004D0002FF4D06B1E002DF0D117004D463B
:102DB0000B9B002B03D1119B0133119354E50A9F08
:102DC000109B06E0561C434659462020A847230086
:102DD00032005C1C9F42F5D81700ECE721231C430E
:102DE0001C9B1A1D1C921B680093059408230493D6
:102DF00053460393102302930023019343463A0062
:102E000059462800FFF7A5F80700119B01331193DD
:102E10002AE57C1C43463A0059462520A847119BC9
:102E20000133119327001FE57C1C43463A005946A5
:102E3000A847119B01331193270015E50A4B9A46C9
:102E400010E5AA46474502D343465A1E00E03A0021
:102E5000434659460020D047380013B0F0BCBB466B
:102E6000B246A946A046F0BD5F1D001000B585B072
:102E7000029003910121009313004A4202A90248E3
:102E8000FFF7E2FC05B000BD611D00100148042100
:102E9000014B184720020020BD2E001010B5010084
:102EA00018231B8814221088984710BD10B5010004
:102EB00018231B8816221088984710BDF0B5C64607
:102EC00000B507000E0000250123984600E00135FB
:102ED000B5420AD2AC003C192068FFF7DFFF206042
:102EE0000028F4D100239846F1E7404680BCB8465C
:102EF000F0BD0000144A936F9B0815D29066D1660E
:102F0000002905D0FFE7FFE7FFE7516F106F70471B
:102F100004B580210906C2175140002800D0C843DB
:102F200001F022FD002104BD936F5B08FDD3F0B5D5
:102F3000946ED56E576F166FFFF7E0FF9466D566F7
:102F400057671667F0BD0000000000D0134A936F6A
:102F50009B0813D210665166002905D0FFE7FFE7F2
:102F6000FFE7516F106F704704B5002801D00020B3
:102F7000C04301F0F9FC002104BDC046936F5B081B
:102F8000FDD3F0B5946ED56E576F166FFFF7E2FF65
:102F90009466D56657671667F0BD0000000000D044
:102FA00094464E4A926F9208624601D230E0C04683
:102FB000F0B54A4EB56F6D08FCD3346E756E776F01
:102FC000366F00F025F89446444A146655665767F4
:102FD00016676246F0BDC0469446404A926F92081A
:102FE000624601D258E0C046F0B53C4EB56F6D0860
:102FF000FCD3346E756E776F366F00F04DF89446E3
:10300000364A14665566576716676246F0BDC04675
:10301000002B24DB11D000293EDA00B5C943404221
:1030200000D1013100F038F8C943404200D10131EC
:10303000DB43524200D1013300BD002AEBD100280E
:1030400001D1002905D00020C90FC90701D1C04313
:10305000410800B501F080FC0022002300BD00B54E
:1030600000290ADBDB43524200D1013300F014F89F
:10307000C943404200D1013100BDC943404200D1A3
:103080000131DB43524200D1013300F005F8DB434C
:10309000524200D1013300BD002923D1002B18D1A9
:1030A000002A0CD0BC460D4F38667A6600210023FA
:1030B000FFE7FFE7FFE77A6F386F67467047002842
:1030C00001D00748010000B501F046FC00220023B2
:1030D00000BD02000B00002000217047000000D05E
:1030E000FFFFFFFF002B00D0BDE0130C26D1002A0C
:1030F000E7D080B4104F39667A66FFE7FFE730B457
:10310000040C7B6F396F1B0423433B66FFE7FFE72B
:10311000FFE7C04684B27B6F3D6F1B0423433B66D1
:10312000FFE7FFE7C04600232C042D0C7A6F386FB1
:1031300000196941B0BC7047000000D0F0B594465A
:103140000025140E01D112020835140F01D112010D
:103150000435940F01D192000235D40F01D15200F1
:103160000135D40B0134254F7C66254C3C660E0C92
:1031700093B2FFE7FFE7FFE73C6F6643360C770348
:10318000BE467343DF0B5B04C01AB941130C734393
:10319000DB18C91ACE086643360CB64493B27343A3
:1031A0001F0F1B01C01AB941130C73431F0B1B05E2
:1031B000C01AB941860D8F023E436643360C092D75
:1031C00024DB520A7243801A7703460A6643360CA0
:1031D00016235B1BDE40DF40BF1964466643821B3B
:1031E0007046043506330100D940A840C01900D309
:1031F0000131A24206D20023F0BD0000000000D041
:10320000FFFFFFFF121B0130F3D3F1E709277F1BFC
:10321000FE406446A2B27243801A00D20139220CE9
:103220007243130C1204821A99410B007046043544
:1032300013370100F940A840801900D30131002B59
:1032400002D1A2420AD2F0BD013000D30131121BDB
:10325000FAD2013BF8D1A24200D2F0BD013000D336
:103260000131121BF7E7F0B51C0C00D080E00CB464
:1032700000251C0A04D11B02160E33431202083526
:103280001C0B04D11B01160F3343120104359C0B98
:1032900004D19B00960F334392000235DC0B02D120
:1032A00092185B4101351C00971864410134464F68
:1032B0007C66464C3C660E0CFFE7FFE7FFE7C04626
:1032C0003C6F6643360C7703BE4697B27743C01B0C
:1032D00000D20139C01B00D201399FB27743C91B0C
:1032E000C91B170C77437E04FF0B801BB941CE0826
:1032F0006643360C0C2D33DBB644120B1F053A43E4
:103300001B0B97B27743C01B00D201399FB27743A2
:10331000C91B170C77433E043F0C801BB941860D37
:103320008F023E43664329277F1BFE400C3D7746B4
:10333000AF40BF1930BCA2B2ABB272437343801A24
:103340009941220C7243130C1204801A9941020015
:103350000B000137001BA941F9D2781E0021F0BDF6
:103360000C277F1BFE4077467F0BAF40FF19E0E73D
:1033700000245D1C07D0144F7D663966FFE7FFE728
:10338000FFE7FFE73C6F95B29EB265436643401B83
:10339000B141150C1E0C6543664336042F0C3E43A9
:1033A0002D04401BB141994204D202000B002000C1
:1033B0000021F0BD01D19042F7D3801A9941013428
:1033C0009942F2D3F6E70000000000D0FFFFFFFFB4
:1033D00048404140484018B4114B5B68FC4601939B
:1033E00008BD04DF6F36001018B40D4B1B68FC4697
:1033F000019308BD00DF7936001018B4084BDB6874
:10340000FC46019308BD0CDF3139001018B4044BA1
:103410009B68FC46019308BD08DFD537001000000B
:103420004C0B0020FFB550404240504059404B40AB
:10343000594000E0FFB5154F4C00640D03D0BC426D
:1034400004D10C0314D80020090D09055C00640D9B
:1034500003D0BC4204D11C030AD800221B0D1B055B
:1034600001264B4009D44B4003D58B4200D1824208
:10347000FFBD9942FCD19042FFBD0B43DB180343D3
:103480001343F5D0C9434918FFBD0000FF070000F2
:1034900000B5FFF7CFFF804100BDC04600B5FFF784
:1034A000C9FF01D9002000BD012000BD00B5FFF714
:1034B000B9FF01D9002000BD012000BD00B5FFF714
:1034C000B1FF804100BD012040054A00121804D818
:1034D0005A00121801D800207047012070470020C0
:1034E000704700000021002805D17047C1174840EF
:1034F000401AFAD0C90713B5064B1B6898470CBC95
:10350000441CA2401005120B0349091B090519436D
:10351000114310BD4C0C00201F04000010B54C00DE
:10352000620D8023D218DB00D21A5B057E2A10DDE3
:103530009E3A13DACC170903490819435242D14085
:10354000640001341532202A05DAD0400843604374
:1035500010BD002010BD0846604310BDC80FC01844
:10356000013810BD18B4044B5B6AFC46019308BDDA
:1035700024DF5D3B001000004C0B002070B51323CE
:103580001C78012C0FD0012C0FDC022C02DC1D4A10
:103590001D4B9A6470BD99001A481B4A885001332C
:1035A0001F2BF8D9EFE70023FAE71848FFF77EFC56
:1035B00005001748FFF77AFC023803789B007F2B41
:1035C00019DD80222900104800F00EFC022CDCD10D
:1035D000104B1A88B5231B029A4209D10E4B1A8848
:1035E0000E4B9A4204D10E4B1A880E4B9A42CCD005
:1035F0000020FDF7F7FF0C4B0C4A30210C48FDF77B
:10360000D3FFC046353600104C0B00205344000059
:103610005346000054380000D838000049460000E6
:103620009C38000059460000C05400106855001036
:103630002055001007B56046002800D100BE018863
:103640000A0A0230DF2AFAD1C9B2820804D30288FA
:1036500040880004104300E00068024A5050039084
:1036600007BD00004C0B00200FB403BC0CBCF0B530
:103670000124E407634000E0F0B50C0DCF0F661E97
:103680003605891B640503D3C943404200D3013189
:10369000640D03D0661CF60A07D0E41B00207F00EF
:1036A000791C89078912803C24031D0DDF0F6E1ED3
:1036B00036059B1B6D0503D3DB43524200D3013318
:1036C0006D0D03D06E1CF60A07D0ED1B00227F00A3
:1036D0007B1C9B079B12803D2D032F1B661B58D420
:1036E000A446202E46DA20371400BC401D00BD4001
:1036F000F24033412A4380185941CB0F05D0C943CA
:10370000C043002264425041514162464D0D28D1D0
:103710000D0D07D100281FD0241940414941013A1D
:103720000D0DF9D0640006D3013000D30131002C17
:1037300001D140084000013A0BD4941CE40A04D1A2
:1037400012051144DB071944F0BDD907204B19437A
:1037500000E0D9070020F0BD0029DDD1002CDBD12D
:10376000F0BD0132C6074008CD0728434908002EA6
:10377000E1D0D9E73C2E29DA203E40371400BC4086
:1037800000D00124F24014431A00BB401C43D3175D
:10379000ACE7AC46202F08DA20360400B4400D0018
:1037A000B540F84039412843A5E73C2F0CDA203FCB
:1037B00040360400B44000D00124F840044308001F
:1037C000B1400C43C117EAE710001900002494E748
:1037D0000000F07FF0B50C0D661E3605891BE60A69
:1037E0006405640D02D0651CED0A04D0002001219F
:1037F0000905803C2403A4461C0D671E3F05DB1B06
:10380000E70A6405640D02D0651CED0A04D00022AD
:1038100001231B05803C24037740644497B484B2A1
:1038200096B27443070C7E43150C6F4380B2684315
:10383000361802D3012000043F183004350C00195B
:103840007D41844688B29AB250430C0C62431F0CEF
:103850007C438EB27E43921902D301263604A4190A
:103860001604170C3618674101BC81B29AB2514355
:10387000040C62431B0C5C4380B25843121802D301
:103880000120000424181004130C401863412D1863
:103890005E410020474106BC88B293B258430C0CED
:1038A0006343120C544389B251435B1802D3012184
:1038B0000904641819041A0C091862416D1856415C
:1038C0000020474118BCF902720D1143F0026A0D45
:1038D0001043ED020A0D03D16D1940414941013BEE
:1038E000124E9B1B7600B3420ED26D0007D30130FF
:1038F000002671416646354301D1400840001B0552
:10390000C918E4072144F0BD0BDA013306D10130B8
:1039100004D101314F0D01D04908F2E7E107002041
:10392000F0BD013631050020EBE70000FF03000089
:10393000F0B51C0D671E3F05DB1BE70A6405640D2F
:1039400002D0661CF60A04D0002201231B05803C2D
:103950002403D0252D060026F6432E661E096E662A
:10396000CE0FF619B44649004F0D02D07E1CF60A60
:1039700003D000200021403F3F033E1BB600B4446B
:10398000013F7F05C91B49082E6F013676089C024E
:10399000950D25437543ED137543AD1301356D103A
:1039A000F603761B0CB4CC02450D2C43A2B2B3B285
:1039B0005A43270C7B43350C6F43A4B26C431B194D
:1039C00002D3012424043F191C041D0CA4187D41BA
:1039D00024196D41009A91B2ACB26143170C7C433B
:1039E0002B0C5F4392B25A43A41802D30122120453
:1039F000BF182204230C52187B41019C6C431B19F5
:103A0000520ED9010A434401A01A81B2B2B2514305
:103A100003145A43360C734387B27743D617D2192F
:103A200000277E4136049B191704160C7F185E414F
:103A30007316ED18F301002680337541A90F06D1E6
:103A40006400690AE8055B0A184309D22FE00422E2
:103A5000944480337541A90AA8059B0A184326D3CC
:103A6000404149412404009A019B0D005543641BC9
:103A70004343E41A95B286B27543170C7E43030C98
:103A80005F4392B25A43B61802D301221204BF1800
:103A90003204330C52197B4152429C41002C02D417
:103AA0000022013051414008CA071043490802B0C2
:103AB0006246D7079210084BD218084B9A4203D29D
:103AC00012058918C919F0BD0020002A01DC39004F
:103AD000F0BD01331905F5E7FD030000FE07000006
:103AE000624618CA944600291ADAC01861415B463A
:103AF0003B415C46B4405246FA40224344464D4660
:103B000062416B41904699462B46B3403D41FC4093
:103B10001C4352465B46A241AB4192469B467047CE
:103B2000C01AA1414B463B414C46B4404246FA4084
:103B3000224354465D4662416B4192469B462B466A
:103B4000B3403D41FC401C4342464B46A241AB4181
:103B5000904699467047002000217047002200B52A
:103B6000203200F004F8080000BD000000220B1510
:103B7000F1D410B5944600F02FF81414013400DA93
:103B80000021CB17134C20476244343A0CD40C2A42
:103B900007DA04009140904052422032D440214341
:103BA00010BDD843D94310BD203207D40C469440F1
:103BB000524220321141D040204310BD0800C917A5
:103BC000203203D452422032104110BD1800190097
:103BD00010BD0000893B00100A0DCC0F531E1B05C1
:103BE000C91A520503D3C943404200D30131520DD3
:103BF00003D0531CDB0A07D0121B00206400611C99
:103C000089078912803A1203014BD21A70470000CB
:103C1000FF03000051434343C9188C46110C83B283
:103C20004B4310B4040C614392B280B250436243E0
:103C30001C041B0C001910BC59411304120CC018B1
:103C400051416144704700004840414048400023D2
:103C50009C46094B5B68184700239C46064B1B6833
:103C6000184700239C46044BDB68184700239C46FA
:103C7000014B9B6818470000500C002000239C4615
:103C8000014B5B6A18470000500C002070B51323ED
:103C90001D782A48FFF70AF90400012D11D0012DE3
:103CA00009DDA31E1B789B007F2B40DD80222100B5
:103CB000234800F099F82348FFF7F0F8224B1860EA
:103CC00070BD542201001E4800F08EF81F4B1A8868
:103CD0001F4B9A421CD1A7239B011A881D4B9A4265
:103CE00016D11D4B1A881D4B9A4211D11C4B1A88B4
:103CF00094239B019A420BD11A4B1A881A4B9A4271
:103D000006D11A4B1A681A4B9A4201D1152307E0C3
:103D10001848FDF767FC99001748094A8850013395
:103D20001F2BF8D9144A064B1A62DA61B7E7134B16
:103D3000134A42211348FDF737FCC04653460000A2
:103D4000500C00204C3300004C0C0020EE290000E9
:103D5000C40F0000C20D0000962B0000C0B500008B
:103D6000182B0000CC2A000010B50000FC2C00002D
:103D700051ED8764984E0010893D00107C5500106D
:103D8000F8550010B055001007B56046002800D166
:103D900000BE01880A0A0230DF2AFAD1C9B28208BD
:103DA00004D3028840880004104300E00068024AFF
:103DB0005050039007BD0000500C002010B500F0DB
:103DC00071F910BD10B500F033F910BD01480421A0
:103DD000014B184730020020BD2E0010014B1B681C
:103DE0001847000030020020014B5B6818470000B4
:103DF00030020020F8B507000D001600437C002BB0
:103E000002D0002400200CE003681100280098472D
:103E10002DE03B7C10E0022115483B689847601C70
:103E20000134B44214DA002CF3DD2B19013B1B786A
:103E30000D3B5A425341DBB22A5D0A2AF0D1002BD6
:103E4000EED1A042E7DA211A28183B689847E2E74A
:103E5000B04203DA311A28183B689847002E06DD75
:103E6000AD19013D2B780D3B5A4253413B74F8BDCF
:103E70009856001070B505000368002B16D00C4B47
:103E80001C6805E0290004C92000FFF7B3FFE468BF
:103E9000002C09D02368002BF9D0064B1B68002B9F
:103EA000F0D0A342F3D1EDE700232B6070BDC046F4
:103EB0002C0B0020340B002070B505000C000B68A3
:103EC000802B05D021684B1C23606418257170BDC0
:103ED0000800FFF7CFFFF5E710B582B0D0231B062F
:103EE0001C6801A9064800F047FD002806D1019B87
:103EF000A34203D0024800F047FD012002B010BDEC
:103F0000800A002010B5024800F01EFD10BDC0461A
:103F1000800A0020F0B5C64600B582B006000D004C
:103F20001700FFF7D9FF80466B1C02D0184B1C68A6
:103F300005E0300000F0A2FB0500F7E7E468002C84
:103F400018D02368002BF9D0124B1B68002B01D02E
:103F5000A342F3D12A0031002000FFF74BFF002FCE
:103F6000ECD06B46D91D0A230B7001222000FFF70D
:103F700041FFE3E74346002B06D16B1E9D41E8B2AB
:103F800002B080BCB846F0BDFFF7BCFFF5E7C04605
:103F90002C0B0020340B002010B5064B1C6801E0F0
:103FA0009847E468002C03D06368002BF8D1F8E749
:103FB00010BDC0462C0B002070B5050000F05EFB64
:103FC0000400012201002800FFF7A4FFFFF7E4FF2F
:103FD000200070BD70B5A2B004000E00FFF77CFF9A
:103FE00005008422002101A8FFF7F8FE330022001B
:103FF00001A90848FEF73AFF040001A8FFF73AFFBD
:10400000FFF7CAFF002D02D1200022B070BDFFF7DC
:1040100079FFF9E7B93E00100FB400B583B004A9E9
:1040200001C90191FFF7D6FF03B008BC04B01847DF
:10403000030010B50A0003490868190000F004F8ED
:1040400010BDC0464002002010B5514300F034F8C6
:10405000041E0ED00300083B5A6803239A43043A17
:10406000242A15D80300132A05D800221A605A60A2
:104070009A60200010BD00210833016041601B2AB6
:10408000F3D98160C160242A06D003001033ECE725
:104090000021FFF7A3FEECE7030001611833416143
:1040A000E3E7C04610B5034B0100186800F004F8C0
:1040B00010BDC04640020020F0B54E464546DE46E3
:1040C0005746E0B50D000B35060083B0162D22D8FB
:1040D000102900D9B2E000F0AFFA10251823022011
:1040E000CB4FFB181A005C68083A944200D1B5E047
:1040F000032362689A431300E268A168CA60916072
:104100000122E318596830000A435A6000F09CFA13
:104110002000083095E007239D4300D58EE0A9429A
:1041200000D98BE000F088FAFC235B009D4200D2AE
:10413000A5E1680A00D18BE0042800D978E1382392
:104140009846A80980443930C100B14F79184C68AD
:104150000839A1420ED003239C4604E0002ACBDAA2
:10416000E468A14206D06246636893435A1B0F2A53
:10417000F4DD40463A003C690832944200D178E0D0
:1041800003236168994389460B00491B0F2900DD11
:1041900079E17A613A610029B2DA80229200914590
:1041A00000D30EE15909DA0801238B40D200796867
:1041B000D2190B4391687B60E260A1609460CC608F
:1041C000012182109140994259D80B4205D1032216
:1041D0009043490004300B42FBD003239846C300B0
:1041E0009946B944CC4682466346DC68A44507D16B
:1041F0002AE1002A00DB33E1E468A44500D123E191
:104200004246636893435A1B0F2AF2DD0120804621
:10421000611905436560A068E5680837C560A86056
:1042200040461043F960B9604860CF6030008F604D
:10423000E25000F009FA2000083002E00C230020D0
:10424000336003B0F0BCBB46B246A946A046F0BD01
:1042500080213F2340209846890076E7DC680230C1
:10426000A34200D044E73A003C690832944200D0AF
:1042700086E701217B68821091409942A5D90323EA
:10428000BC6862689A439146954203D8531B0F2B32
:1042900000DD88E023004B445E4A01935E4B934669
:1042A0001B681268EB18013200D13BE15B4A94466F
:1042B00063441B0B1B0300933000009900F0CCF902
:1042C00003008046013300D1F8E0019B834200D90E
:1042D000F2E0534B19009A460968009B8C46514600
:1042E00063440B6001991A00814200D150E15B46A2
:1042F0001B68013300D155E1434601995B1A9A18B6
:1043000053461A600723424641461A400192194219
:1043100000D111E108239846881A424B0099804445
:1043200041449B1A5B1A1B051B0D009130001900BC
:104330009B4600F091F9431C00D14FE14346C01A5F
:1043400003005B440093534652461B6801215B44C3
:10435000136042464046BA60009A0A434260BC423B
:1043600000D123E14A460F2A00D821E107200C3A68
:10437000824360680140052011436160A1184860D4
:1043800088600F2A00D934E14246444652682649E3
:104390000868984200D20B6024490868984200D30C
:1043A0008EE00B608CE00122290013431143651954
:1043B00061603000BD606B6000F046F9200008309D
:1043C0003FE75A0A042A71D9142A00D9C4E011001F
:1043D0005C325B31D20008235B429C46BA1894449D
:1043E00063469A6803239846944500D19DE043466E
:1043F00051689943494502D992689445F7D1D368E9
:104400009C467B686146A260E1608C60D460D7E620
:1044100070060020780A0020EC0A00200F1000002F
:10442000BC0A002008100000E40A0020E80A00206E
:10443000142852D9542800D996E06E239846280BA8
:1044400080446F30C10080E608239B46073BDC4474
:104450009B46DA4443465246134200D0C4E64CE041
:104460000122E318596830000A435A60E368A268E1
:10447000D3609A6000F0E8F820000830E1E62B00F5
:10448000E80808332CE6012360191D436560786154
:104490003861C26082601A004B460A4342603000B5
:1044A000E15000F0D1F820000830CAE69A09110066
:1044B00039323831D2008EE7BC4260D0BC686268C5
:1044C00003239A43531B954202D80F2B00DD6AE762
:1044D000300000F0B9F80020B3E65B239846804432
:1044E0005C30C10031E608235B429C46E1444B4608
:1044F0009B6801384B4500D098E043460342F2D117
:104500007B688B437B604900994200D9B7E600295C
:1045100004D1B4E6042294464900E2440B42F9D0A7
:1045200050465CE610330093C6E68910023B8B4090
:1045300079680B437B6065E7009B300043445B4236
:104540001B051B0D19009B4600F086F8431C00D08C
:10455000F4E600239B46F6E6542A2BD81A0B1100EA
:104560006F326E31D20036E7AA235B0098422BD817
:10457000DD3B9846E80B80447830C100E5E52C4BE4
:10458000009A9A461B689C46534662441A60AEE6FF
:10459000090500D0ABE6009ABC684A4401310A43E1
:1045A0006260F4E65B4642461A60ABE64446EEE6DD
:1045B00041608DE7AA2149008A4224D8DA0B110014
:1045C00078327731D20006E71A4B984224D87C2300
:1045D0009846A80C80447D30C100B6E5009A019B46
:1045E00094464246083B63449B1A009300239B4633
:1045F000A9E621003000083100F0BCF85346BC6841
:104600001B686268C3E60B498A420BD89A0C1100FA
:104610007D327C31D200DEE6FE217E237F2098466B
:10462000890092E5FE227E219200D4E67B686AE74B
:10463000BC0A00205405000010B5024800F07CF9C7
:1046400010BDC046B80A002010B5024800F076F947
:1046500010BDC046B80A0020002370B5064D040006
:1046600008002B60FCF780FF431C00D070BD2B6856
:10467000002BFBD02360F9E7300B002010B5830737
:104680000AD00300032102E001330B4205D01A785F
:10469000002AF9D1181A10BD030019680C4A0D4CF4
:1046A0008A188A4322420FD15968094A04338A186A
:1046B0008A43224208D15968054A04338A188A433A
:1046C0002242F1D000E001331A78002AFBD1E1E761
:1046D000FFFEFEFE80808080F8B50C000500FFF72D
:1046E000ABFF204FBB685E6803239E431E4B341B09
:1046F0009C466444240B013C113324039C4207DB99
:1047000000212800FFF7A8FFBB689B19984204D03E
:104710002800FFF799FF0020F8BD28006142FFF74D
:104720009BFF431C0DD00122BB68361B16435E6005
:104730000E4B28001A68141B1C60FFF785FF012030
:10474000EAE700212800FFF787FFBA68831A0F2BDA
:10475000DEDD07490968401A0449086001210B435E
:104760005360D5E770060020EF0F0000BC0A002060
:10477000780A0020F0B5C64605000C0000B50029F7
:104780004FD0FFF759FF210008394C68012622005D
:104790000320B2438F187B6883436248984683683E
:1047A000BB426AD043467B6026421ED108239C460A
:1047B0000C688444091B12198C6864454FD0CB687F
:1047C000E3609C604346FC186468344211D1BB68C6
:1047D000554C4244A34200D17EE0FC68DC60A360FB
:1047E000012313434B608A5006E0FC18646834428E
:1047F000EDD016434E603A6080239B009A4213D25C
:104800005409D3080122A2404468DB0022434260DD
:1048100018188368C8608B608160D9602800FFF732
:1048200013FF80BCB846F0BD530A042B3ED8940950
:10483000260039343836E40004192368083C03277D
:104840009C4242D05868B843904202D99B689C422F
:10485000F8D1DC68CC608B60A160D960DEE74346AC
:10486000F8184068304257D1FB68B8684244164394
:10487000C36098604E608A50D0E7130043442642DC
:1048800006D10A68891A8C689B18CA68E26094602D
:1048900001221A434A60254A816012689A42BDD8B3
:1048A000234B28001968FFF717FFB7E7142B07D928
:1048B000542B1AD8140B26006F346E36E400BBE775
:1048C0001E005C335B36DC00B6E70122B610B24056
:1048D000466832434260BDE7D9609960CB608B6027
:1048E000012313434B608A5098E7AA246400A34233
:1048F00005D8D40B260078347736E4009CE70D4CBD
:10490000A34205D8940C26007D347C36E40093E75E
:10491000FE247E26A4008FE7330013434B603A60E9
:104920007CE7C04670060020780600207C0A002044
:10493000EC0A0020540500007047C0467047C0468E
:10494000F8B5C0460000000001B40248844601BC2E
:10495000604700BF6901002001B40248844601BCE1
:10496000604700BFB501002001B40248844601BC85
:10497000604700BFB501002001B40248844601BC75
:10498000604700BF2501002001B40248844601BCF5
:08499000604700BFC1000020D8
:104998006964202626206964203C3D20706F6F6C76
:1049A8002D3E686561702D3E6D61785F6E6F646540
:1049B80073000000443A5C5069636F20446F776E5F
:1049C8006C6F6164735C7069636F2D73646B5C7387
:1049D80072635C636F6D6D6F6E5C7069636F5F743B
:1049E800696D655C74696D652E630000256C6C6487
:1049F800202868692025303278290000696420263B
:104A080026206964203C3D20686561702D3E6D61FB
:104A1800785F6E6F64657300443A5C5049434F4455
:104A28004F7E315C7069636F2D73646B5C73726366
:104A38005C636F6D6D6F6E5C5049434F5F557E319F
:104A48005C696E636C7564652F7069636F2F75742C
:104A5800696C2F70686561702E68000070617265FE
:104A68006E745F69640000006368696C645F696400
:104A780000000000706172656E745F696420213DFA
:104A8800206368696C645F69640000002170685F76
:104A9800636F6E7461696E7328706F6F6C2D3E68FA
:104AA8006561702C2072657573655F696429000003
:104AB8006964000072656D6F7665645F6964203DA6
:104AC8003D206E6578745F696400000063616C6CFA
:104AD8006261636B00000000706F6F6C2D3E616C4B
:104AE80061726D5F696E5F70726F67726573732054
:104AF8003D3D206D616B655F7075626C69635F69D0
:104B0800642869645F686967682C206E6578745FDB
:104B1800696429006964202626202170685F636F14
:104B28006E7461696E7328686561702C20696429E8
:104B38000000000064656661756C745F616C617289
:104B48006D5F706F6F6C0000616C61726D5F706F8C
:104B58006F6C5F6765745F64656661756C7400008F
:104B68006765745F656E7472795F69645F686967A9
:104B78006800000070685F6164645F746F5F6672EC
:104B880065655F6C6973740070685F6164645F6316
:104B980068696C645F6E6F646500000070685F69C7
:104BA8006E7365727400000070685F6765745F6E8D
:104BB8006F6465006164645F616C61726D5F756EDE
:104BC8006465725F6C6F636B00000000616C6172FA
:104BD8006D5F706F6F6C5F616C61726D5F63616C4C
:104BE8006C6261636B0000006765745F656E747268
:104BF80079000000486172647761726520616C61B8
:104C0800726D20256420616C726561647920636C23
:104C180061696D656400000074696D65725F68772D
:104C28002D3E696E74732026203175203C3C20612E
:104C38006C61726D5F6E756D00000000443A5C50E7
:104C480069636F20446F776E6C6F6164735C706921
:104C5800636F2D73646B5C7372635C7270325F6335
:104C68006F6D6D6F6E5C68617264776172655F7499
:104C7800696D65725C74696D65722E630000000071
:104C880068617264776172655F616C61726D5F7390
:104C980065745F7461726765740000006C6F636BA4
:104CA8005F6E756D203E3D2030202626206C6F6398
:104CB8006B5F6E756D203C204E554D5F5350494ECD
:104CC8005F4C4F434B530000443A5C5069636F207C
:104CD800446F776E6C6F6164735C7069636F2D737A
:104CE800646B5C7372635C636F6D6D6F6E5C70692F
:104CF800636F5F73796E635C6C6F636B5F636F7216
:104D0800652E63006C6F636B5F696E6974000000E9
:104D18006D74782D3E636F72652E7370696E5F6C6B
:104D28006F636B00443A5C5069636F20446F776E21
:104D38006C6F6164735C7069636F2D73646B5C7313
:104D480072635C636F6D6D6F6E5C7069636F5F73C8
:104D5800796E635C6D757465782E63006D74782D5B
:104D68003E6F776E6572203E3D2030006D7574652C
:104D7800785F6578697400006D757465785F656E35
:104D88007465725F626C6F636B696E670000000028
:104D9800726F6F745F696400443A5C5069636F2096
:104DA800446F776E6C6F6164735C7069636F2D73A9
:104DB800646B5C7372635C636F6D6D6F6E5C70695E
:104DC800636F5F7574696C5C70686561702E6300F1
:104DD8002170685F6765745F6E6F646528686561D8
:104DE800702C20726F6F745F6964292D3E7369623D
:104DF8006C696E67000000002170685F6765745F0A
:104E08006E6F646528686561702C20726F6F745FBF
:104E18006964292D3E706172656E7400666F756EE7
:104E2800640000006E65775F7375625F7472656514
:104E380020213D20686561702D3E726F6F745F6937
:104E48006400000070685F64656C6574650000004C
:104E580070685F72656D6F76655F616E795F6865B2
:104E68006164000070685F6164645F6368696C64B2
:104E78005F6E6F646500000070685F6765745F6EE1
:104E88006F6465002C2066756E6374696F6E3A20D6
:104E980000000000617373657274696F6E202225CB
:104EA8007322206661696C65643A2066696C6520C6
:104EB800222573222C206C696E65202564257325B4
:104EC800730A00000A2A2A2A2050414E4943202A00
:104ED8002A2A0A000A0000007372635F667265710D
:104EE800203E3D206672657100000000443A5C5027
:104EF80069636F20446F776E6C6F6164735C70696F
:104F0800636F2D73646B5C7372635C7270325F6382
:104F18006F6D6D6F6E5C68617264776172655F63F7
:104F28006C6F636B735C636C6F636B732E630000F1
:104F3800636C6F636B5F636F6E666967757265003C
:104F48006662646976203E3D20313620262620663A
:104F580062646976203C3D2033323000443A5C502C
:104F680069636F20446F776E6C6F6164735C7069FE
:104F7800636F2D73646B5C7372635C7270325F6312
:104F88006F6D6D6F6E5C68617264776172655F707A
:104F98006C6C5C706C6C2E630000000028706F7382
:104FA800745F64697631203E3D20312026262070CA
:104FB8006F73745F64697631203C3D203729202661
:104FC800262028706F73745F64697632203E3D2016
:104FD8003120262620706F73745F64697632203C16
:104FE8003D20372900000000706F73745F64697694
:104FF80032203C3D20706F73745F64697631000025
:105008007265665F6D687A203C3D202876636F5F25
:1050180066726571202F203136290000706C6C5F34
:10502800696E697400000000212864656C74612051
:105038003E3E203131752900443A5C5069636F2047
:10504800446F776E6C6F6164735C7069636F2D7306
:10505800646B5C7372635C7270325F636F6D6D6FEB
:105068006E5C68617264776172655F6972715C69B0
:1050780072712E630000000063757272656E742091
:105088003D3D205F5F756E68616E646C65645F7539
:105098007365725F697271207C7C206375727265BA
:1050A8006E74203D3D2068616E646C65720000007E
:1050B8006972715F68616E6465725F636861696E69
:1050C8005F667265655F736C6F745F6865616420A5
:1050D8003E3D203000000000767461626C655F68B8
:1050E800616E646C6572203D3D205F5F756E68611E
:1050F8006E646C65645F757365725F6972710000D8
:10510800212828282875696E747074725F7429764E
:105118007461626C655F68616E646C657229202DCC
:1051280020282875696E747074725F7429697271A9
:105138005F68616E646C65725F636861696E5F73F6
:105148006C6F747329202D2031292573697A656F56
:105158006628737472756374206972715F68616E12
:10516800646C65725F636861696E5F736C6F7429E4
:105178002900000030783163203D3D20282A696EDF
:105188007374293E3E313175000000002165786353
:10519800657074696F6E207C7C20657863657074B7
:1051A800696F6E203D3D206E756D202B20313600D5
:1051B80066616C736500000069735F73686172658E
:1051C800645F6972715F7261775F68616E646C6554
:1051D8007228736C6F745F68616E646C6572290005
:1051E800657863657074696F6E0000006972715F3D
:1051F8006164645F7461696C5F746F5F6672656532
:105208005F6C697374000000696E736572745F6225
:1052180072616E63685F616E645F6C696E6B0000DB
:105228006972715F72656D6F76655F68616E646CD7
:10523800657200006D616B655F6272616E63680024
:105248007265736F6C76655F6272616E6368000089
:105258006972715F7365745F6578636C757369767D
:10526800655F68616E646C6572000000666E690057
:10527800666E692B000000006E616E00666E692D17
:1052880000000000F6280010A6280010A62800102C
:1052980000290010A6280010A6280010A628001033
:1052A800A6280010A6280010A6280010A62800107E
:1052B800EC280010A6280010E2280010A6280010EC
:1052C800A6280010D828001098290010BE29001020
:1052D800D6290010BE29001078290010BE29001018
:1052E800BE290010BE290010BE290010BE290010DA
:1052F800BE290010BE290010B4290010BE290010D4
:10530800BE290010BE290010BE290010BE290010B9
:10531800E2290010122E0010282E0010282E00104E
:10532800282E0010282E0010282E0010282E0010DD
:10533800282E0010282E0010282E0010282E0010CD
:10534800282E0010282E0010282E0010282E0010BD
:10535800282E0010282E0010282E0010282E0010AD
:10536800282E0010282E0010282E0010282E00109D
:10537800282E0010282E0010282E0010282E00108D
:10538800282E0010282E0010282E0010282E00107D
:10539800282E00103A2C0010FA2B00103A2C00107E
:1053A800282E0010282E0010282E0010282E00105D
:1053B800282E0010282E0010282E0010282E00104D
:1053C800282E0010282E0010282E0010282E00103D
:1053D800282E0010282E0010282E0010282E00102D
:1053E800EE290010282E0010282E0010282E00105C
:1053F800282E0010282E0010282E0010282E00100D
:10540800282E0010282E0010EE2900108A2C0010DB
:10541800EE2900103A2C0010FA2B00103A2C00103C
:10542800282E0010EE290010282E0010282E00101B
:10543800282E0010282E0010282E0010EE2900100B
:10544800DC2D0010282E0010282E0010022D001030
:10545800282E0010EE290010282E0010282E0010EB
:10546800EE29001000000000000000000000F03FDE
:105478000000000000002440000000000000594027
:105488000000000000408F40000000000088C3407A
:1054980000000000006AF8400000000080842E41EF
:1054A80000000000D01263410000000084D797413B
:1054B8000000000065CDCD412A282875696E743832
:1054C8005F74202A29282828766F6964202A29727F
:1054D8006F6D5F646174615F6C6F6F6B757028725C
:1054E8006F6D5F7461626C655F636F6465282753D5
:1054F800272C202746272929292D322929202A2007
:1055080034203E3D2053465F5441424C455F56325D
:105518005F53495A45000000443A5C5069636F2064
:10552800446F776E6C6F6164735C7069636F2D7321
:10553800646B5C7372635C7270325F636F6D6D6F06
:105548006E5C7069636F5F646F75626C655C646FD5
:1055580075626C655F696E69745F726F6D2E63004A
:105568005F5F61656162695F646F75626C655F69E1
:105578006E6974002A282875696E74385F74202A49
:105588002928726F6D5F7461626C652D322929203C
:105598002A2034203E3D2053465F5441424C455F0B
:1055A80056325F53495A4500443A5C5069636F204C
:1055B800446F776E6C6F6164735C7069636F2D7391
:1055C800646B5C7372635C7270325F636F6D6D6F76
:1055D8006E5C7069636F5F666C6F61745C666C6F3C
:1055E80061745F696E69745F726F6D2E630000008D
:1055F8005F5F61656162695F666C6F61745F696E48
:10560800697400004465627567000000687474700E
:10561800733A2F2F6769746875622E636F6D2F72E6
:10562800617370626572727970692F7069636F2D2A
:105638006578616D706C65732F747265652F484568
:1056480041442F636F646500312E302E3100000015
:105658007069636F00000000736572766F00000068
:105668004D61722020352032303231000600525010
:10567800BBFF3CB658560010060052509A235618E5
:105688001456001006005250D3F075420C56001004
:045698000D0A0000F7
:10569C00B4020010A80200109C02001074560010F6
:0C56AC0090020010805600108C56001078
:1056B80010B50368002B1AD001230168EFF3108C92
:1056C80072B60A68002AFCD0BFF35F8F04228256A4
:1056D800002A12DB0268BFF35F8F002111608CF390
:1056E8001088002B00D020BF002BE6D110BD064B40
:1056F800064A1521064800F057F8D0231B061B68F8
:1057080003710023E6E7C046184D0010804D0010D5
:105718002C4D001003000068EFF3108C72B602687D
:10572800002AFCD0BFF35F8F04229A56002A0BDBB5
:1057380000290FD00A6000201B68BFF35F8F00228A
:105748001A608CF310887047D022120612681A71FA
:105758000120F1E70020EFE710B50268EFF31081B0
:1057680072B61368002BFCD0BFF35F8F0423C356B7
:10577800002B0ADBFF23037140BF0368BFF35F8F71
:1057880000221A6081F3108810BD034B034A4B2195
:10579800034800F009F8C046644D0010744D00102D
:1057A8002C4D00107047C04601B40248844601BC25
:1057B800604700BFA915001010000000000000009D
:1057C80000000100000000000000000000000200CE
:1057D80000000000000000000000030000000000BE
:1057E800000000000000FF000000000000B548684D
:1057F80001318E460047704609380149884700BD87
:10580800511C001000000000000000000000000013
:10581800503300004C330000543300005233000072
:105828004D5300004D430000533400004334000042
:10583800480200200000000000000000340500209D
:105848009C05002004060020000000000000000065
:105858000000000000000000000000000000000040
:105868000000000000000000000000000000000030
:105878000000000000000000000000000000000020
:105888000000000000000000000000000000000010
:105898000000000000000000000000000000000000
:1058A80000000000000000000000000000000000F0
:1058B80000000000000000000000000000000000E0
:1058C80000000000000000000000000000000000D0
:1058D80000000000000000000000000000000000C0
:1058E80001000000000000000E33CDAB34126DE65D
:1058F800ECDE05000B0000000000000000000000C6
:10590800000000000000000000000000000000008F
:10591800000000000000000000000000000000007F
:10592800000000000000000000000000000000006F
:10593800000000000000000000000000000000005F
:105C68000000000000000000700600207006002000
:105C78007806002078060020800600208006002094
:105C88008806002088060020900600209006002044
:105C98009806002098060020A0060020A0060020F4
:105CA800A8060020A8060020B0060020B0060020A4
:105CB800B8060020B8060020C0060020C006002054
:105CC800C8060020C8060020D0060020D006002004
:105CD800D8060020D8060020E0060020E0060020B4
:105CE800E8060020E8060020F0060020F006002064
:105CF800F8060020F8060020000700200007002012
:105D080008070020080700201007002010070020BF
:105D1800180700201807002020070020200700206F
:105D2800280700202807002030070020300700201F
:105D380038070020380700204007002040070020CF
:105D4800480700204807002050070020500700207F
:105D5800580700205807002060070020600700202F
:105D680068070020680700207007002070070020DF
:105D7800780700207807002080070020800700208F
:105D8800880700208807002090070020900700203F
:105D98009807002098070020A0070020A0070020EF
:105DA800A8070020A8070020B0070020B00700209F
:105DB800B8070020B8070020C0070020C00700204F
:105DC800C8070020C8070020D0070020D0070020FF
:105DD800D8070020D8070020E0070020E0070020AF
:105DE800E8070020E8070020F0070020F00700205F
